{
  "contractName": "TodoList",
  "abi": [
    {
      "inputs": [],
      "stateMutability": "nonpayable",
      "type": "constructor"
    },
    {
      "anonymous": false,
      "inputs": [
        {
          "indexed": false,
          "internalType": "uint256",
          "name": "id",
          "type": "uint256"
        },
        {
          "indexed": false,
          "internalType": "bool",
          "name": "completed",
          "type": "bool"
        }
      ],
      "name": "TaskCompleted",
      "type": "event"
    },
    {
      "anonymous": false,
      "inputs": [
        {
          "indexed": false,
          "internalType": "uint256",
          "name": "id",
          "type": "uint256"
        },
        {
          "indexed": false,
          "internalType": "string",
          "name": "content",
          "type": "string"
        },
        {
          "indexed": false,
          "internalType": "bool",
          "name": "completed",
          "type": "bool"
        },
        {
          "indexed": false,
          "internalType": "address",
          "name": "author",
          "type": "address"
        }
      ],
      "name": "TaskCreated",
      "type": "event"
    },
    {
      "inputs": [],
      "name": "name",
      "outputs": [
        {
          "internalType": "string",
          "name": "",
          "type": "string"
        }
      ],
      "stateMutability": "view",
      "type": "function",
      "constant": true
    },
    {
      "inputs": [],
      "name": "taskCount",
      "outputs": [
        {
          "internalType": "uint256",
          "name": "",
          "type": "uint256"
        }
      ],
      "stateMutability": "view",
      "type": "function",
      "constant": true
    },
    {
      "inputs": [
        {
          "internalType": "uint256",
          "name": "",
          "type": "uint256"
        }
      ],
      "name": "tasks",
      "outputs": [
        {
          "internalType": "uint256",
          "name": "id",
          "type": "uint256"
        },
        {
          "internalType": "string",
          "name": "content",
          "type": "string"
        },
        {
          "internalType": "bool",
          "name": "completed",
          "type": "bool"
        },
        {
          "internalType": "address",
          "name": "author",
          "type": "address"
        }
      ],
      "stateMutability": "view",
      "type": "function",
      "constant": true
    },
    {
      "inputs": [
        {
          "internalType": "string",
          "name": "_content",
          "type": "string"
        }
      ],
      "name": "createTask",
      "outputs": [],
      "stateMutability": "nonpayable",
      "type": "function"
    },
    {
      "inputs": [
        {
          "internalType": "uint256",
          "name": "_id",
          "type": "uint256"
        }
      ],
      "name": "toggleCompleted",
      "outputs": [],
      "stateMutability": "nonpayable",
      "type": "function"
    },
    {
      "inputs": [],
      "name": "getTasks",
      "outputs": [],
      "stateMutability": "nonpayable",
      "type": "function"
    }
  ],
  "bytecode": "0x6080604052600060015534801561001557600080fd5b506040518060400160405280600781526020017f57656c636f6d650000000000000000000000000000000000000000000000000081525060009080519060200190610061929190610067565b5061016b565b8280546100739061010a565b90600052602060002090601f01602090048101928261009557600085556100dc565b82601f106100ae57805160ff19168380011785556100dc565b828001600101855582156100dc579182015b828111156100db5782518255916020019190600101906100c0565b5b5090506100e991906100ed565b5090565b5b808211156101065760008160009055506001016100ee565b5090565b6000600282049050600182168061012257607f821691505b602082108114156101365761013561013c565b5b50919050565b7f4e487b7100000000000000000000000000000000000000000000000000000000600052602260045260246000fd5b610b65806200017b6000396000f3fe608060405234801561001057600080fd5b50600436106100625760003560e01c806304a87e381461006757806306fdde0314610071578063111002aa1461008f578063455f5024146100ab5780638d977672146100c7578063b6cb58a5146100fa575b600080fd5b61006f610118565b005b61007961011a565b604051610086919061080c565b60405180910390f35b6100a960048036038101906100a49190610730565b6101a8565b005b6100c560048036038101906100c09190610779565b6102f3565b005b6100e160048036038101906100dc9190610779565b61051d565b6040516100f19493929190610872565b60405180910390f35b610102610602565b60405161010f919061082e565b60405180910390f35b565b60008054610127906109ba565b80601f0160208091040260200160405190810160405280929190818152602001828054610153906109ba565b80156101a05780601f10610175576101008083540402835291602001916101a0565b820191906000526020600020905b81548152906001019060200180831161018357829003601f168201915b505050505081565b60008151116101b657600080fd5b600160008154809291906101c990610a1d565b9190505550604051806080016040528060015481526020018281526020016000151581526020013373ffffffffffffffffffffffffffffffffffffffff16815250600260006001548152602001908152602001600020600082015181600001556020820151816001019080519060200190610245929190610608565b5060408201518160020160006101000a81548160ff02191690831515021790555060608201518160020160016101000a81548173ffffffffffffffffffffffffffffffffffffffff021916908373ffffffffffffffffffffffffffffffffffffffff1602179055509050507fa31a815e4d8d7c7af5700d02c3c156b3a6682908db1a38865de7b8a0c6f12a84600154826000336040516102e89493929190610872565b60405180910390a150565b6000600260008381526020019081526020016000206040518060800160405290816000820154815260200160018201805461032d906109ba565b80601f0160208091040260200160405190810160405280929190818152602001828054610359906109ba565b80156103a65780601f1061037b576101008083540402835291602001916103a6565b820191906000526020600020905b81548152906001019060200180831161038957829003601f168201915b505050505081526020016002820160009054906101000a900460ff161515151581526020016002820160019054906101000a900473ffffffffffffffffffffffffffffffffffffffff1673ffffffffffffffffffffffffffffffffffffffff1673ffffffffffffffffffffffffffffffffffffffff168152505090508060400151158160400190151590811515815250508060026000848152602001908152602001600020600082015181600001556020820151816001019080519060200190610471929190610608565b5060408201518160020160006101000a81548160ff02191690831515021790555060608201518160020160016101000a81548173ffffffffffffffffffffffffffffffffffffffff021916908373ffffffffffffffffffffffffffffffffffffffff1602179055509050507fe21fa966ca5cd02748c0752352d18c48165e61cb55b4c29cccf924b5a95fcff1828260400151604051610511929190610849565b60405180910390a15050565b6002602052806000526040600020600091509050806000015490806001018054610546906109ba565b80601f0160208091040260200160405190810160405280929190818152602001828054610572906109ba565b80156105bf5780601f10610594576101008083540402835291602001916105bf565b820191906000526020600020905b8154815290600101906020018083116105a257829003601f168201915b5050505050908060020160009054906101000a900460ff16908060020160019054906101000a900473ffffffffffffffffffffffffffffffffffffffff16905084565b60015481565b828054610614906109ba565b90600052602060002090601f016020900481019282610636576000855561067d565b82601f1061064f57805160ff191683800117855561067d565b8280016001018555821561067d579182015b8281111561067c578251825591602001919060010190610661565b5b50905061068a919061068e565b5090565b5b808211156106a757600081600090555060010161068f565b5090565b60006106be6106b9846108e3565b6108be565b9050828152602081018484840111156106da576106d9610af8565b5b6106e5848285610978565b509392505050565b600082601f83011261070257610701610af3565b5b81356107128482602086016106ab565b91505092915050565b60008135905061072a81610b18565b92915050565b60006020828403121561074657610745610b02565b5b600082013567ffffffffffffffff81111561076457610763610afd565b5b610770848285016106ed565b91505092915050565b60006020828403121561078f5761078e610b02565b5b600061079d8482850161071b565b91505092915050565b6107af81610930565b82525050565b6107be81610942565b82525050565b60006107cf82610914565b6107d9818561091f565b93506107e9818560208601610987565b6107f281610b07565b840191505092915050565b6108068161096e565b82525050565b6000602082019050818103600083015261082681846107c4565b905092915050565b600060208201905061084360008301846107fd565b92915050565b600060408201905061085e60008301856107fd565b61086b60208301846107b5565b9392505050565b600060808201905061088760008301876107fd565b818103602083015261089981866107c4565b90506108a860408301856107b5565b6108b560608301846107a6565b95945050505050565b60006108c86108d9565b90506108d482826109ec565b919050565b6000604051905090565b600067ffffffffffffffff8211156108fe576108fd610ac4565b5b61090782610b07565b9050602081019050919050565b600081519050919050565b600082825260208201905092915050565b600061093b8261094e565b9050919050565b60008115159050919050565b600073ffffffffffffffffffffffffffffffffffffffff82169050919050565b6000819050919050565b82818337600083830152505050565b60005b838110156109a557808201518184015260208101905061098a565b838111156109b4576000848401525b50505050565b600060028204905060018216806109d257607f821691505b602082108114156109e6576109e5610a95565b5b50919050565b6109f582610b07565b810181811067ffffffffffffffff82111715610a1457610a13610ac4565b5b80604052505050565b6000610a288261096e565b91507fffffffffffffffffffffffffffffffffffffffffffffffffffffffffffffffff821415610a5b57610a5a610a66565b5b600182019050919050565b7f4e487b7100000000000000000000000000000000000000000000000000000000600052601160045260246000fd5b7f4e487b7100000000000000000000000000000000000000000000000000000000600052602260045260246000fd5b7f4e487b7100000000000000000000000000000000000000000000000000000000600052604160045260246000fd5b600080fd5b600080fd5b600080fd5b600080fd5b6000601f19601f8301169050919050565b610b218161096e565b8114610b2c57600080fd5b5056fea2646970667358221220d8feb6b8f7e99ad65ca775d47d44e92ccbbbd3d3d8145b3c3246bcd27fbc03ef64736f6c63430008060033",
  "immutableReferences": {},
  "source": "// SPDX-License-Identifier: MIT\r\n\r\npragma solidity ^0.8.6;\r\n\r\ncontract TodoList {\r\n    string public name;\r\n    uint256 public taskCount = 0;\r\n\r\n    struct Task {\r\n        uint256 id;\r\n        string content;\r\n        bool completed;\r\n        address author;\r\n    }\r\n\r\n    mapping(uint256 => Task) public tasks;\r\n\r\n    event TaskCreated(\r\n        uint256 id,\r\n        string content,\r\n        bool completed,\r\n        address author\r\n    );\r\n\r\n    event TaskCompleted(uint256 id, bool completed);\r\n\r\n    constructor() {\r\n        name = \"Welcome\";\r\n    }\r\n\r\n    function createTask(string memory _content) public {\r\n        require(bytes(_content).length > 0);\r\n        // require(msg.sender != address(0));\r\n        taskCount++;\r\n        tasks[taskCount] = Task(taskCount, _content, false, msg.sender);\r\n        emit TaskCreated(taskCount, _content, false, msg.sender);\r\n    }\r\n\r\n    function toggleCompleted(uint256 _id) public {\r\n        Task memory _task = tasks[_id];\r\n        _task.completed = !_task.completed;\r\n        tasks[_id] = _task;\r\n        emit TaskCompleted(_id, _task.completed);\r\n    }\r\n\r\n    function getTasks() public {}\r\n}\r\n",
  "sourcePath": "C:\\Users\\HAINGUYEN\\Desktop\\todo_list_with_blockchain\\src\\contracts\\Todo.sol",
  "compiler": {
    "name": "solc",
    "version": "0.8.6+commit.11564f7e.Emscripten.clang"
  },
  "schemaVersion": "3.4.2",
  "updatedAt": "2021-08-09T03:41:19.250Z",
  "networkType": "ethereum",
  "devdoc": {
    "kind": "dev",
    "methods": {},
    "version": 1
  },
  "userdoc": {
    "kind": "user",
    "methods": {},
    "version": 1
  }
}