{
  "contractName": "TodoList",
  "abi": [
    {
      "inputs": [],
      "stateMutability": "nonpayable",
      "type": "constructor"
    },
    {
      "anonymous": false,
      "inputs": [
        {
          "indexed": false,
          "internalType": "uint256",
          "name": "id",
          "type": "uint256"
        },
        {
          "indexed": false,
          "internalType": "bool",
          "name": "completed",
          "type": "bool"
        }
      ],
      "name": "TaskCompleted",
      "type": "event"
    },
    {
      "anonymous": false,
      "inputs": [
        {
          "indexed": false,
          "internalType": "uint256",
          "name": "id",
          "type": "uint256"
        },
        {
          "indexed": false,
          "internalType": "string",
          "name": "content",
          "type": "string"
        },
        {
          "indexed": false,
          "internalType": "bool",
          "name": "completed",
          "type": "bool"
        }
      ],
      "name": "TaskCreated",
      "type": "event"
    },
    {
      "inputs": [],
      "name": "taskCount",
      "outputs": [
        {
          "internalType": "uint256",
          "name": "",
          "type": "uint256"
        }
      ],
      "stateMutability": "view",
      "type": "function",
      "constant": true
    },
    {
      "inputs": [
        {
          "internalType": "uint256",
          "name": "",
          "type": "uint256"
        }
      ],
      "name": "tasks",
      "outputs": [
        {
          "internalType": "uint256",
          "name": "id",
          "type": "uint256"
        },
        {
          "internalType": "string",
          "name": "content",
          "type": "string"
        },
        {
          "internalType": "bool",
          "name": "completed",
          "type": "bool"
        }
      ],
      "stateMutability": "view",
      "type": "function",
      "constant": true
    },
    {
      "inputs": [
        {
          "internalType": "string",
          "name": "_content",
          "type": "string"
        }
      ],
      "name": "createTask",
      "outputs": [],
      "stateMutability": "nonpayable",
      "type": "function"
    },
    {
      "inputs": [
        {
          "internalType": "uint256",
          "name": "_id",
          "type": "uint256"
        }
      ],
      "name": "toggleCompleted",
      "outputs": [],
      "stateMutability": "nonpayable",
      "type": "function"
    },
    {
      "inputs": [],
      "name": "getTasks",
      "outputs": [],
      "stateMutability": "nonpayable",
      "type": "function"
    }
  ],
  "bytecode": "0x6080604052600080553480156200001557600080fd5b506200005c6040518060400160405280601781526020017f57656c636f6d6520746f206d7920746f646f20446170700000000000000000008152506200006260201b60201c565b620003f0565b600080815480929190620000769062000333565b919050555060405180606001604052806000548152602001828152602001600015158152506001600080548152602001908152602001600020600082015181600001556020820151816001019080519060200190620000d79291906200013e565b5060408201518160020160006101000a81548160ff0219169083151502179055509050507f05d0fb833127fc08168556d0e7ca9554fc3f6bc843b3b7d2bf1c35aea6bab660600054826000604051620001339392919062000251565b60405180910390a150565b8280546200014c90620002fd565b90600052602060002090601f016020900481019282620001705760008555620001bc565b82601f106200018b57805160ff1916838001178555620001bc565b82800160010185558215620001bc579182015b82811115620001bb5782518255916020019190600101906200019e565b5b509050620001cb9190620001cf565b5090565b5b80821115620001ea576000816000905550600101620001d0565b5090565b620001f981620002b1565b82525050565b60006200020c8262000295565b620002188185620002a0565b93506200022a818560208601620002c7565b6200023581620003df565b840191505092915050565b6200024b81620002bd565b82525050565b600060608201905062000268600083018662000240565b81810360208301526200027c8185620001ff565b90506200028d6040830184620001ee565b949350505050565b600081519050919050565b600082825260208201905092915050565b60008115159050919050565b6000819050919050565b60005b83811015620002e7578082015181840152602081019050620002ca565b83811115620002f7576000848401525b50505050565b600060028204905060018216806200031657607f821691505b602082108114156200032d576200032c620003b0565b5b50919050565b60006200034082620002bd565b91507fffffffffffffffffffffffffffffffffffffffffffffffffffffffffffffffff82141562000376576200037562000381565b5b600182019050919050565b7f4e487b7100000000000000000000000000000000000000000000000000000000600052601160045260246000fd5b7f4e487b7100000000000000000000000000000000000000000000000000000000600052602260045260246000fd5b6000601f19601f8301169050919050565b61090480620004006000396000f3fe608060405234801561001057600080fd5b50600436106100575760003560e01c806304a87e381461005c578063111002aa14610066578063455f5024146100825780638d9776721461009e578063b6cb58a5146100d0575b600080fd5b6100646100ee565b005b610080600480360381019061007b9190610540565b6100f0565b005b61009c60048036038101906100979190610589565b6101c6565b005b6100b860048036038101906100b39190610589565b610353565b6040516100c793929190610651565b60405180910390f35b6100d8610412565b6040516100e5919061060d565b60405180910390f35b565b600080815480929190610102906107bc565b919050555060405180606001604052806000548152602001828152602001600015158152506001600080548152602001908152602001600020600082015181600001556020820151816001019080519060200190610161929190610418565b5060408201518160020160006101000a81548160ff0219169083151502179055509050507f05d0fb833127fc08168556d0e7ca9554fc3f6bc843b3b7d2bf1c35aea6bab6606000548260006040516101bb93929190610651565b60405180910390a150565b6000600160008381526020019081526020016000206040518060600160405290816000820154815260200160018201805461020090610759565b80601f016020809104026020016040519081016040528092919081815260200182805461022c90610759565b80156102795780601f1061024e57610100808354040283529160200191610279565b820191906000526020600020905b81548152906001019060200180831161025c57829003601f168201915b505050505081526020016002820160009054906101000a900460ff161515151581525050905080604001511581604001901515908115158152505080600160008481526020019081526020016000206000820151816000015560208201518160010190805190602001906102ee929190610418565b5060408201518160020160006101000a81548160ff0219169083151502179055509050507fe21fa966ca5cd02748c0752352d18c48165e61cb55b4c29cccf924b5a95fcff1828260400151604051610347929190610628565b60405180910390a15050565b600160205280600052604060002060009150905080600001549080600101805461037c90610759565b80601f01602080910402602001604051908101604052809291908181526020018280546103a890610759565b80156103f55780601f106103ca576101008083540402835291602001916103f5565b820191906000526020600020905b8154815290600101906020018083116103d857829003601f168201915b5050505050908060020160009054906101000a900460ff16905083565b60005481565b82805461042490610759565b90600052602060002090601f016020900481019282610446576000855561048d565b82601f1061045f57805160ff191683800117855561048d565b8280016001018555821561048d579182015b8281111561048c578251825591602001919060010190610471565b5b50905061049a919061049e565b5090565b5b808211156104b757600081600090555060010161049f565b5090565b60006104ce6104c9846106b4565b61068f565b9050828152602081018484840111156104ea576104e9610897565b5b6104f5848285610717565b509392505050565b600082601f83011261051257610511610892565b5b81356105228482602086016104bb565b91505092915050565b60008135905061053a816108b7565b92915050565b600060208284031215610556576105556108a1565b5b600082013567ffffffffffffffff8111156105745761057361089c565b5b610580848285016104fd565b91505092915050565b60006020828403121561059f5761059e6108a1565b5b60006105ad8482850161052b565b91505092915050565b6105bf81610701565b82525050565b60006105d0826106e5565b6105da81856106f0565b93506105ea818560208601610726565b6105f3816108a6565b840191505092915050565b6106078161070d565b82525050565b600060208201905061062260008301846105fe565b92915050565b600060408201905061063d60008301856105fe565b61064a60208301846105b6565b9392505050565b600060608201905061066660008301866105fe565b818103602083015261067881856105c5565b905061068760408301846105b6565b949350505050565b60006106996106aa565b90506106a5828261078b565b919050565b6000604051905090565b600067ffffffffffffffff8211156106cf576106ce610863565b5b6106d8826108a6565b9050602081019050919050565b600081519050919050565b600082825260208201905092915050565b60008115159050919050565b6000819050919050565b82818337600083830152505050565b60005b83811015610744578082015181840152602081019050610729565b83811115610753576000848401525b50505050565b6000600282049050600182168061077157607f821691505b6020821081141561078557610784610834565b5b50919050565b610794826108a6565b810181811067ffffffffffffffff821117156107b3576107b2610863565b5b80604052505050565b60006107c78261070d565b91507fffffffffffffffffffffffffffffffffffffffffffffffffffffffffffffffff8214156107fa576107f9610805565b5b600182019050919050565b7f4e487b7100000000000000000000000000000000000000000000000000000000600052601160045260246000fd5b7f4e487b7100000000000000000000000000000000000000000000000000000000600052602260045260246000fd5b7f4e487b7100000000000000000000000000000000000000000000000000000000600052604160045260246000fd5b600080fd5b600080fd5b600080fd5b600080fd5b6000601f19601f8301169050919050565b6108c08161070d565b81146108cb57600080fd5b5056fea264697066735822122069c02e263ffd9f2073afc096e0d879500d125bca58774e8f27f3bb529f9592c664736f6c63430008060033",
  "immutableReferences": {},
  "source": "// SPDX-License-Identifier: MIT\r\n\r\npragma solidity ^0.8.6;\r\n\r\ncontract TodoList {\r\n    uint256 public taskCount = 0;\r\n\r\n    struct Task {\r\n        uint256 id;\r\n        string content;\r\n        bool completed;\r\n    }\r\n\r\n    mapping(uint256 => Task) public tasks;\r\n\r\n    event TaskCreated(uint256 id, string content, bool completed);\r\n\r\n    event TaskCompleted(uint256 id, bool completed);\r\n\r\n    constructor() {\r\n        createTask(\"Welcome to my todo Dapp\");\r\n    }\r\n\r\n    function createTask(string memory _content) public {\r\n        taskCount++;\r\n        tasks[taskCount] = Task(taskCount, _content, false);\r\n        emit TaskCreated(taskCount, _content, false);\r\n    }\r\n\r\n    function toggleCompleted(uint256 _id) public {\r\n        Task memory _task = tasks[_id];\r\n        _task.completed = !_task.completed;\r\n        tasks[_id] = _task;\r\n        emit TaskCompleted(_id, _task.completed);\r\n    }\r\n\r\n    function getTasks() public {}\r\n}\r\n",
  "sourcePath": "C:\\Users\\HAINGUYEN\\Desktop\\todo_list_with_blockchain\\src\\contracts\\Todo.sol",
  "compiler": {
    "name": "solc",
    "version": "0.8.6+commit.11564f7e.Emscripten.clang"
  },
  "schemaVersion": "3.4.2",
  "updatedAt": "2021-08-07T17:58:53.048Z",
  "networkType": "ethereum",
  "devdoc": {
    "kind": "dev",
    "methods": {},
    "version": 1
  },
  "userdoc": {
    "kind": "user",
    "methods": {},
    "version": 1
  }
}